:020000040000FA
:100000000C9462000C947F000C947F000C947F0091
:100010000C947F000C947F000C947F000C94BA0227
:100020000C947F000C947F000C947F000C947F0054
:100030000C947F000C947F000C947F000C947F0044
:100040000C9470020C947F000C947F000C947F0041
:100050000C947F000C947F000C947F000C947F0024
:100060000C947F000C947F00000000002400270007
:100070002A000000000023002600290000000008DC
:10008000000201000003040700000000000000005F
:10009000010204081020408001020408102001021F
:1000A0000408102000000000250028002B00040494
:1000B0000404040404040202020202020303030310
:1000C0000303020011241FBECFEFD8E0DEBFCDBF77
:1000D00011E0A0E0B1E0E2EDF7E002C005900D9282
:1000E000A230B107D9F721E0A2E0B1E001C01D9232
:1000F000AC31B207E1F70E9416030C94E7030C94AD
:100100000000833081F028F4813099F08230A9F02A
:1001100008958730A9F08830C9F08430B1F4809117
:1001200080008F7D03C0809180008F778093800056
:10013000089584B58F7784BD089584B58F7DFBCFF6
:100140008091B0008F778093B00008958091B000C7
:100150008F7DF9CFCF93DF939091000189130BC06E
:10016000E2ECF0E0E4919FEF90930001E13059F16F
:1001700038F1E23071F1282F30E0F901E458FF4FF7
:100180008491F901E057FF4FD491F901E255FF4FF7
:10019000C491CC2391F081110E948100EC2FF0E0FA
:1001A000EE0FFF1FEC55FF4FA591B4918FB7F89458
:1001B000EC91D095DE23DC938FBFDF91CF91089532
:1001C00010926E00D8CF90916F009D7F90936F003A
:1001D000D2CF909170009D7F9093700091E09093AA
:1001E000B0009091B100987F94609093B10010920C
:1001F000B300C1CFCF93DF93282F30E0F901E4584B
:10020000FF4F8491F901E057FF4FD491F901E25576
:10021000FF4FC491CC23A1F081110E948100EC2FEB
:10022000F0E0EE0FFF1FEE58FF4FA591B491EC9157
:10023000ED2381E090E009F480E0DF91CF91089513
:1002400080E090E0FACFCF93DF9390E0FC01E0579D
:10025000FF4F249182559F4FFC0184918823D1F058
:1002600090E0880F991FFC01E859FF4FA591B491C8
:10027000FC01EC55FF4FC591D491623071F49FB7EA
:10028000F8943C91822F809583238C93E8812E2BC8
:1002900028839FBFDF91CF9108958FB7F894EC9199
:1002A0002E2B2C938FBFF6CFCF92DF92EF92FF923F
:1002B0000F931F93CF938C01809100018D3059F0E3
:1002C0008F3F09F44BC0CF911F910F91FF90EF909A
:1002D000DF90CF900895E2ECF0E0C491C7FDF3CF3A
:1002E00061E08DE00E942301C1114EC0980150E0F1
:1002F00040E068E478EE81E090E00E94B903690193
:100300007A0181E0C81AD108E108F10885B5887F33
:10031000836085BD9801220F331FA4E6B0E00E94E0
:10032000D80328EE33E040E050E00E949703C1304C
:1003300009F4B4C0C23009F4C3C0C111C4CFC7BCF2
:10034000209318013093190140931A0150931B0117
:1003500080916E00826080936E00B5CF8DE08093B7
:100360000001E2ECF0E0C491CF3F09F4ACCFC13022
:1003700009F43DC018F1C23009F457C0C7FDA3CF3E
:1003800061E08DE00E942301980150E040E0C2301E
:1003900009F06DC060E970ED83E090E00E94B90360
:1003A00069017A0181E0C81AD108E108F108809159
:1003B000B100887F83608093B100ACCF14BC15BCC2
:1003C00084B5826084BD85B5816085BDEBEBF0E0CE
:1003D000E491F0E0EE0FFF1FEC55FF4F85919491F3
:1003E000EDE9F0E0E491E0930F01C0E079CF1092E5
:1003F000800010928100809181008860809381004C
:1004000080918100816080938100EBEBF0E0E491CA
:10041000F0E0EE0FFF1FEC55FF4F85919491EDE951
:10042000F0E0E491E0930E015BCF1092B0001092E7
:10043000B1008091B00082608093B0008091B100E3
:1004400081608093B100EBEBF0E0E491F0E0EE0F1F
:10045000FF1FEC55FF4F8591949190930D01809370
:100460000C01EDE9F0E0E491E0930B0139CF60E09D
:1004700072E18AE790E00E94B90369017A0181E0A4
:10048000C81AD108E108F108C13009F043CF8091C2
:100490008100887F8160809381003CCFD092890069
:1004A000C0928800209314013093150140931601E7
:1004B0005093170180916F00826080936F0003CF8B
:1004C000C092B300209310013093110140931201A8
:1004D0005093130180917000826080937000F3CE7E
:1004E0001F920F920FB60F9211242F933F938F9369
:1004F0009F93AF93BF938091070190910801A091C2
:100500000901B0910A013091060123E0230F2D3734
:1005100058F50196A11DB11D209306018093070196
:1005200090930801A0930901B0930A018091020100
:1005300090910301A0910401B09105010196A11DC4
:10054000B11D8093020190930301A0930401B09325
:100550000501BF91AF919F918F913F912F910F9086
:100560000FBE0F901F90189526E8230F0296A11D2D
:10057000B11DD2CF1F920F920FB60F9211242F935D
:100580003F934F935F936F937F938F939F93AF931B
:10059000BF93EF93FF938091100190911101A0916F
:1005A0001201B0911301892B8A2B8B2BD1F19091E1
:1005B0000B01E0910C01F0910D018081892780836E
:1005C0008091100190911101A0911201B09113013D
:1005D000181619061A061B069CF4809110019091BA
:1005E0001101A0911201B09113010197A109B10964
:1005F0008093100190931101A0931201B093130105
:10060000FF91EF91BF91AF919F918F917F916F91EA
:100610005F914F913F912F910F900FBE0F901F90C0
:100620001895809100010E94AA00EACF789484B5C1
:10063000826084BD84B5816084BD85B5826085BDDE
:1006400085B5816085BD80916E00816080936E006C
:10065000109281008091810082608093810080915E
:10066000810081608093810080918000816080930F
:1006700080008091B10084608093B1008091B000CF
:1006800081608093B00080917A00846080937A00CA
:1006900080917A00826080937A0080917A008160F4
:1006A00080937A0080917A00806880937A0010921B
:1006B000C100C2E062E08C2F0E942301CF5FCB30EB
:1006C000C9F761E08DE00E942301C0E0D0E082E044
:1006D0000E94FA00892B29F48DED94E00E945401C8
:1006E000F6CF83E00E94FA00892B29F485E795E094
:1006F0000E945401F6CF84E00E94FA00892B29F46D
:1007000088EC95E00E945401F6CF85E00E94FA0043
:10071000892B29F489E497E00E945401F6CF8DE0FB
:100720000E94AA00209799F20E940000D0CFA1E277
:100730001A2EAA1BBB1BFD010DC0AA1FBB1FEE1F5B
:10074000FF1FA217B307E407F50720F0A21BB30BA6
:10075000E40BF50B661F771F881F991F1A9469F722
:1007600060957095809590959B01AC01BD01CF017E
:100770000895052E97FB1EF400940E94D00357FDA8
:1007800007D00E94970307FC03D04EF40C94D003CB
:1007900050954095309521953F4F4F4F5F4F0895AD
:1007A00090958095709561957F4F8F4F9F4F0895DD
:1007B000A29FB001B39FC001A39F700D811D1124A2
:1007C000911DB29F700D811D1124911D0895F89403
:0407D000FFCFFF0058
:107E0000112484B714BE81FFF0D085E080938100F7
:107E100082E08093C00088E18093C10086E0809377
:107E2000C20080E18093C4008EE0C9D0259A86E02C
:107E300020E33CEF91E0309385002093840096BBD3
:107E4000B09BFECF1D9AA8958150A9F7CC24DD24C4
:107E500088248394B5E0AB2EA1E19A2EF3E0BF2EE7
:107E6000A2D0813461F49FD0082FAFD0023811F036
:107E7000013811F484E001C083E08DD089C08234E0
:107E800011F484E103C0853419F485E0A6D080C0E4
:107E9000853579F488D0E82EFF2485D0082F10E0AE
:107EA000102F00270E291F29000F111F8ED06801E7
:107EB0006FC0863521F484E090D080E0DECF843638
:107EC00009F040C070D06FD0082F6DD080E0C81688
:107ED00080E7D80618F4F601B7BEE895C0E0D1E017
:107EE00062D089930C17E1F7F0E0CF16F0E7DF06D8
:107EF00018F0F601B7BEE89568D007B600FCFDCFD4
:107F0000A601A0E0B1E02C9130E011968C91119780
:107F100090E0982F8827822B932B1296FA010C0160
:107F200087BEE89511244E5F5F4FF1E0A038BF0790
:107F300051F7F601A7BEE89507B600FCFDCF97BE46
:107F4000E89526C08437B1F42ED02DD0F82E2BD052
:107F50003CD0F601EF2C8F010F5F1F4F84911BD097
:107F6000EA94F801C1F70894C11CD11CFA94CF0C13
:107F7000D11C0EC0853739F428D08EE10CD085E9AC
:107F80000AD08FE07ACF813511F488E018D01DD067
:107F900080E101D065CF982F8091C00085FFFCCF94
:107FA0009093C60008958091C00087FFFCCF809118
:107FB000C00084FD01C0A8958091C6000895E0E648
:107FC000F0E098E1908380830895EDDF803219F02E
:107FD00088E0F5DFFFCF84E1DECF1F93182FE3DFCA
:107FE0001150E9F7F2DF1F91089580E0E8DFEE27F6
:047FF000FF270994CA
:027FFE00040479
:00000001FF
